{
  "contractName": "ERC721Enumerable",
  "abi": [
    {
      "anonymous": false,
      "inputs": [
        {
          "indexed": true,
          "internalType": "address",
          "name": "from",
          "type": "address"
        },
        {
          "indexed": true,
          "internalType": "address",
          "name": "to",
          "type": "address"
        },
        {
          "indexed": true,
          "internalType": "uint256",
          "name": "tokenId",
          "type": "uint256"
        }
      ],
      "name": "Transfer",
      "type": "event"
    },
    {
      "inputs": [
        {
          "internalType": "address",
          "name": "_owner",
          "type": "address"
        }
      ],
      "name": "balanceOf",
      "outputs": [
        {
          "internalType": "uint256",
          "name": "",
          "type": "uint256"
        }
      ],
      "stateMutability": "view",
      "type": "function"
    },
    {
      "inputs": [
        {
          "internalType": "uint256",
          "name": "_tokenId",
          "type": "uint256"
        }
      ],
      "name": "ownerOf",
      "outputs": [
        {
          "internalType": "address",
          "name": "",
          "type": "address"
        }
      ],
      "stateMutability": "view",
      "type": "function"
    },
    {
      "inputs": [],
      "name": "totalSupply",
      "outputs": [
        {
          "internalType": "uint256",
          "name": "",
          "type": "uint256"
        }
      ],
      "stateMutability": "view",
      "type": "function"
    }
  ],
  "bytecode": "0x608060405234801561000f575f80fd5b506104c58061001d5f395ff3fe608060405234801561000f575f80fd5b506004361061003f575f3560e01c806318160ddd146100435780636352211e1461006157806370a0823114610091575b5f80fd5b61004b6100c1565b6040516100589190610244565b60405180910390f35b61007b6004803603810190610076919061028b565b6100cd565b60405161008891906102f5565b60405180910390f35b6100ab60048036038101906100a69190610338565b610178565b6040516100b89190610244565b60405180910390f35b5f600280549050905090565b5f805f808481526020019081526020015f205f9054906101000a900473ffffffffffffffffffffffffffffffffffffffff1690505f73ffffffffffffffffffffffffffffffffffffffff168173ffffffffffffffffffffffffffffffffffffffff160361016f576040517f08c379a0000000000000000000000000000000000000000000000000000000008152600401610166906103e3565b60405180910390fd5b80915050919050565b5f8073ffffffffffffffffffffffffffffffffffffffff168273ffffffffffffffffffffffffffffffffffffffff16036101e7576040517f08c379a00000000000000000000000000000000000000000000000000000000081526004016101de90610471565b60405180910390fd5b60015f8373ffffffffffffffffffffffffffffffffffffffff1673ffffffffffffffffffffffffffffffffffffffff1681526020019081526020015f20549050919050565b5f819050919050565b61023e8161022c565b82525050565b5f6020820190506102575f830184610235565b92915050565b5f80fd5b61026a8161022c565b8114610274575f80fd5b50565b5f8135905061028581610261565b92915050565b5f602082840312156102a05761029f61025d565b5b5f6102ad84828501610277565b91505092915050565b5f73ffffffffffffffffffffffffffffffffffffffff82169050919050565b5f6102df826102b6565b9050919050565b6102ef816102d5565b82525050565b5f6020820190506103085f8301846102e6565b92915050565b610317816102d5565b8114610321575f80fd5b50565b5f813590506103328161030e565b92915050565b5f6020828403121561034d5761034c61025d565b5b5f61035a84828501610324565b91505092915050565b5f82825260208201905092915050565b7f4552433732313a206f776e657220717565727920666f72206e6f6e65786973745f8201527f656e7420746f6b656e0000000000000000000000000000000000000000000000602082015250565b5f6103cd602983610363565b91506103d882610373565b604082019050919050565b5f6020820190508181035f8301526103fa816103c1565b9050919050565b7f4552433732313a2062616c616e636520717565727920666f7220746865207a655f8201527f726f206164647265737300000000000000000000000000000000000000000000602082015250565b5f61045b602a83610363565b915061046682610401565b604082019050919050565b5f6020820190508181035f8301526104888161044f565b905091905056fea2646970667358221220c13744ee0cdb2daf9c6d256f616b0acda7be67ae2d70570cf305dfb501a3a16c64736f6c63430008150033",
  "immutableReferences": {},
  "source": "// SPDX-License-Identifier: MIT\r\npragma solidity >=0.4.22 <0.9.0;\r\n\r\nimport './ERC721.sol';\r\n\r\ncontract ERC721Enumerable is ERC721{\r\n\r\n  uint256[] private _allTokens;\r\n\r\n  // mapping from tokenId to position in the allTokens array\r\n  mapping(uint256 => uint256) private _allTokensIndex;\r\n\r\n  // mapping of owner to list of all owner token ids\r\n  mapping(address => uint256[]) private _ownedTokens;\r\n\r\n  // mapping from token ID index of the owner token ids\r\n  mapping(uint256 => uint256) private _ownedTokensIndex;\r\n  \r\n  function _mint(address to, uint256 tokenId) internal override(ERC721) {\r\n    super._mint(to, tokenId);\r\n    _addTokenToTotalSupply(tokenId);\r\n  } //    \r\n\r\n  function _addTokenToTotalSupply(uint256 tokenId) private {\r\n    _allTokens.push(tokenId);\r\n  } //   \r\n\r\n  function totalSupply() public view returns (uint256) {\r\n    return _allTokens.length;\r\n  } //   \r\n}",
  "sourcePath": "C:\\git\\project\\nft-marketplace-starter-kit\\src\\contracts\\ERC721Enumerable.sol",
  "compiler": {
    "name": "solc",
    "version": "0.8.21+commit.d9974bed.Emscripten.clang"
  },
  "schemaVersion": "3.4.14",
  "updatedAt": "2023-07-31T11:12:49.659Z",
  "devdoc": {
    "kind": "dev",
    "methods": {
      "balanceOf(address)": {
        "details": "NFTs assigned to the zero address are considered invalid, and this  function throws for queries about the zero address.",
        "params": {
          "_owner": "An address for whom to query the balance"
        },
        "returns": {
          "_0": "The number of NFTs owned by `_owner`, possibly zero"
        }
      },
      "ownerOf(uint256)": {
        "details": "NFTs assigned to zero address are considered invalid, and queries  about them do throw.",
        "params": {
          "_tokenId": "The identifier for an NFT"
        },
        "returns": {
          "_0": "The address of the owner of the NFT"
        }
      }
    },
    "version": 1
  },
  "userdoc": {
    "kind": "user",
    "methods": {
      "balanceOf(address)": {
        "notice": "Count all NFTs assigned to an owner"
      },
      "ownerOf(uint256)": {
        "notice": "Find the owner of an NFT"
      }
    },
    "version": 1
  }
}