{
  "contractName": "ERC721Connector",
  "abi": [
    {
      "inputs": [
        {
          "internalType": "string",
          "name": "named",
          "type": "string"
        },
        {
          "internalType": "string",
          "name": "symbolified",
          "type": "string"
        }
      ],
      "stateMutability": "nonpayable",
      "type": "constructor"
    },
    {
      "anonymous": false,
      "inputs": [
        {
          "indexed": true,
          "internalType": "address",
          "name": "from",
          "type": "address"
        },
        {
          "indexed": true,
          "internalType": "address",
          "name": "to",
          "type": "address"
        },
        {
          "indexed": true,
          "internalType": "uint256",
          "name": "tokenId",
          "type": "uint256"
        }
      ],
      "name": "Transfer",
      "type": "event"
    },
    {
      "inputs": [
        {
          "internalType": "address",
          "name": "_owner",
          "type": "address"
        }
      ],
      "name": "balanceOf",
      "outputs": [
        {
          "internalType": "uint256",
          "name": "",
          "type": "uint256"
        }
      ],
      "stateMutability": "view",
      "type": "function"
    },
    {
      "inputs": [],
      "name": "name",
      "outputs": [
        {
          "internalType": "string",
          "name": "",
          "type": "string"
        }
      ],
      "stateMutability": "view",
      "type": "function"
    },
    {
      "inputs": [
        {
          "internalType": "uint256",
          "name": "_tokenId",
          "type": "uint256"
        }
      ],
      "name": "ownerOf",
      "outputs": [
        {
          "internalType": "address",
          "name": "",
          "type": "address"
        }
      ],
      "stateMutability": "view",
      "type": "function"
    },
    {
      "inputs": [],
      "name": "symbol",
      "outputs": [
        {
          "internalType": "string",
          "name": "",
          "type": "string"
        }
      ],
      "stateMutability": "view",
      "type": "function"
    },
    {
      "inputs": [],
      "name": "totalSupply",
      "outputs": [
        {
          "internalType": "uint256",
          "name": "",
          "type": "uint256"
        }
      ],
      "stateMutability": "view",
      "type": "function"
    }
  ],
  "bytecode": "0x60806040523480156200001157600080fd5b5060405162000b2638038062000b268339818101604052810190620000379190620002c2565b818181600090805190602001906200005192919062000075565b5080600190805190602001906200006a92919062000075565b5050505050620003ab565b828054620000839062000376565b90600052602060002090601f016020900481019282620000a75760008555620000f3565b82601f10620000c257805160ff1916838001178555620000f3565b82800160010185558215620000f3579182015b82811115620000f2578251825591602001919060010190620000d5565b5b50905062000102919062000106565b5090565b5b808211156200012157600081600090555060010162000107565b5090565b6000604051905090565b600080fd5b600080fd5b600080fd5b600080fd5b6000601f19601f8301169050919050565b7f4e487b7100000000000000000000000000000000000000000000000000000000600052604160045260246000fd5b6200018e8262000143565b810181811067ffffffffffffffff82111715620001b057620001af62000154565b5b80604052505050565b6000620001c562000125565b9050620001d3828262000183565b919050565b600067ffffffffffffffff821115620001f657620001f562000154565b5b620002018262000143565b9050602081019050919050565b60005b838110156200022e57808201518184015260208101905062000211565b838111156200023e576000848401525b50505050565b60006200025b6200025584620001d8565b620001b9565b9050828152602081018484840111156200027a57620002796200013e565b5b620002878482856200020e565b509392505050565b600082601f830112620002a757620002a662000139565b5b8151620002b984826020860162000244565b91505092915050565b60008060408385031215620002dc57620002db6200012f565b5b600083015167ffffffffffffffff811115620002fd57620002fc62000134565b5b6200030b858286016200028f565b925050602083015167ffffffffffffffff8111156200032f576200032e62000134565b5b6200033d858286016200028f565b9150509250929050565b7f4e487b7100000000000000000000000000000000000000000000000000000000600052602260045260246000fd5b600060028204905060018216806200038f57607f821691505b602082108103620003a557620003a462000347565b5b50919050565b61076b80620003bb6000396000f3fe608060405234801561001057600080fd5b50600436106100575760003560e01c806306fdde031461005c57806318160ddd1461007a5780636352211e1461009857806370a08231146100c857806395d89b41146100f8575b600080fd5b610064610116565b6040516100719190610448565b60405180910390f35b6100826101a8565b60405161008f9190610483565b60405180910390f35b6100b260048036038101906100ad91906104cf565b6101b5565b6040516100bf919061053d565b60405180910390f35b6100e260048036038101906100dd9190610584565b610266565b6040516100ef9190610483565b60405180910390f35b61010061031d565b60405161010d9190610448565b60405180910390f35b606060008054610125906105e0565b80601f0160208091040260200160405190810160405280929190818152602001828054610151906105e0565b801561019e5780601f106101735761010080835404028352916020019161019e565b820191906000526020600020905b81548152906001019060200180831161018157829003601f168201915b5050505050905090565b6000600480549050905090565b6000806002600084815260200190815260200160002060009054906101000a900473ffffffffffffffffffffffffffffffffffffffff169050600073ffffffffffffffffffffffffffffffffffffffff168173ffffffffffffffffffffffffffffffffffffffff160361025d576040517f08c379a000000000000000000000000000000000000000000000000000000000815260040161025490610683565b60405180910390fd5b80915050919050565b60008073ffffffffffffffffffffffffffffffffffffffff168273ffffffffffffffffffffffffffffffffffffffff16036102d6576040517f08c379a00000000000000000000000000000000000000000000000000000000081526004016102cd90610715565b60405180910390fd5b600360008373ffffffffffffffffffffffffffffffffffffffff1673ffffffffffffffffffffffffffffffffffffffff168152602001908152602001600020549050919050565b60606001805461032c906105e0565b80601f0160208091040260200160405190810160405280929190818152602001828054610358906105e0565b80156103a55780601f1061037a576101008083540402835291602001916103a5565b820191906000526020600020905b81548152906001019060200180831161038857829003601f168201915b5050505050905090565b600081519050919050565b600082825260208201905092915050565b60005b838110156103e95780820151818401526020810190506103ce565b838111156103f8576000848401525b50505050565b6000601f19601f8301169050919050565b600061041a826103af565b61042481856103ba565b93506104348185602086016103cb565b61043d816103fe565b840191505092915050565b60006020820190508181036000830152610462818461040f565b905092915050565b6000819050919050565b61047d8161046a565b82525050565b60006020820190506104986000830184610474565b92915050565b600080fd5b6104ac8161046a565b81146104b757600080fd5b50565b6000813590506104c9816104a3565b92915050565b6000602082840312156104e5576104e461049e565b5b60006104f3848285016104ba565b91505092915050565b600073ffffffffffffffffffffffffffffffffffffffff82169050919050565b6000610527826104fc565b9050919050565b6105378161051c565b82525050565b6000602082019050610552600083018461052e565b92915050565b6105618161051c565b811461056c57600080fd5b50565b60008135905061057e81610558565b92915050565b60006020828403121561059a5761059961049e565b5b60006105a88482850161056f565b91505092915050565b7f4e487b7100000000000000000000000000000000000000000000000000000000600052602260045260246000fd5b600060028204905060018216806105f857607f821691505b60208210810361060b5761060a6105b1565b5b50919050565b7f4552433732313a206f776e657220717565727920666f72206e6f6e657869737460008201527f656e7420746f6b656e0000000000000000000000000000000000000000000000602082015250565b600061066d6029836103ba565b915061067882610611565b604082019050919050565b6000602082019050818103600083015261069c81610660565b9050919050565b7f4552433732313a2062616c616e636520717565727920666f7220746865207a6560008201527f726f206164647265737300000000000000000000000000000000000000000000602082015250565b60006106ff602a836103ba565b915061070a826106a3565b604082019050919050565b6000602082019050818103600083015261072e816106f2565b905091905056fea26469706673582212205d27f356c48746d068b8b9f850e7d4f0c5f7d4d6170eed9e04896dd2d75a2f8464736f6c634300080d0033",
  "immutableReferences": {},
  "source": "// SPDX-License-Identifier: MIT\r\npragma solidity >=0.4.22 <0.9.0;\r\n\r\nimport \"./ERC721Metadata.sol\";\r\nimport \"./ERC721Enumerable.sol\";\r\n\r\ncontract ERC721Connector is ERC721Metadata, ERC721Enumerable {\r\n\r\n  // we want to carry the metadata info over\r\n  constructor (string memory named, string memory symbolified) ERC721Metadata(named, symbolified) {\r\n  }\r\n}",
  "sourcePath": "C:\\git\\project\\nft-marketplace-starter-kit\\src\\contracts\\ERC721Connector.sol",
  "compiler": {
    "name": "solc",
    "version": "0.8.13+commit.abaa5c0e.Emscripten.clang"
  },
  "schemaVersion": "3.4.14",
  "updatedAt": "2023-07-31T11:39:14.342Z",
  "devdoc": {
    "kind": "dev",
    "methods": {
      "balanceOf(address)": {
        "details": "NFTs assigned to the zero address are considered invalid, and this  function throws for queries about the zero address.",
        "params": {
          "_owner": "An address for whom to query the balance"
        },
        "returns": {
          "_0": "The number of NFTs owned by `_owner`, possibly zero"
        }
      },
      "ownerOf(uint256)": {
        "details": "NFTs assigned to zero address are considered invalid, and queries  about them do throw.",
        "params": {
          "_tokenId": "The identifier for an NFT"
        },
        "returns": {
          "_0": "The address of the owner of the NFT"
        }
      }
    },
    "version": 1
  },
  "userdoc": {
    "kind": "user",
    "methods": {
      "balanceOf(address)": {
        "notice": "Count all NFTs assigned to an owner"
      },
      "ownerOf(uint256)": {
        "notice": "Find the owner of an NFT"
      }
    },
    "version": 1
  }
}