{
  "contractName": "ERC721",
  "abi": [
    {
      "anonymous": false,
      "inputs": [
        {
          "indexed": true,
          "internalType": "address",
          "name": "from",
          "type": "address"
        },
        {
          "indexed": true,
          "internalType": "address",
          "name": "to",
          "type": "address"
        },
        {
          "indexed": true,
          "internalType": "uint256",
          "name": "tokenId",
          "type": "uint256"
        }
      ],
      "name": "Transfer",
      "type": "event"
    },
    {
      "inputs": [
        {
          "internalType": "address",
          "name": "_owner",
          "type": "address"
        }
      ],
      "name": "balanceOf",
      "outputs": [
        {
          "internalType": "uint256",
          "name": "",
          "type": "uint256"
        }
      ],
      "stateMutability": "view",
      "type": "function"
    },
    {
      "inputs": [
        {
          "internalType": "uint256",
          "name": "_tokenId",
          "type": "uint256"
        }
      ],
      "name": "ownerOf",
      "outputs": [
        {
          "internalType": "address",
          "name": "",
          "type": "address"
        }
      ],
      "stateMutability": "view",
      "type": "function"
    }
  ],
  "bytecode": "0x608060405234801561000f575f80fd5b506104908061001d5f395ff3fe608060405234801561000f575f80fd5b5060043610610034575f3560e01c80636352211e1461003857806370a0823114610068575b5f80fd5b610052600480360381019061004d919061022e565b610098565b60405161005f9190610298565b60405180910390f35b610082600480360381019061007d91906102db565b610143565b60405161008f9190610315565b60405180910390f35b5f805f808481526020019081526020015f205f9054906101000a900473ffffffffffffffffffffffffffffffffffffffff1690505f73ffffffffffffffffffffffffffffffffffffffff168173ffffffffffffffffffffffffffffffffffffffff160361013a576040517f08c379a0000000000000000000000000000000000000000000000000000000008152600401610131906103ae565b60405180910390fd5b80915050919050565b5f8073ffffffffffffffffffffffffffffffffffffffff168273ffffffffffffffffffffffffffffffffffffffff16036101b2576040517f08c379a00000000000000000000000000000000000000000000000000000000081526004016101a99061043c565b60405180910390fd5b60015f8373ffffffffffffffffffffffffffffffffffffffff1673ffffffffffffffffffffffffffffffffffffffff1681526020019081526020015f20549050919050565b5f80fd5b5f819050919050565b61020d816101fb565b8114610217575f80fd5b50565b5f8135905061022881610204565b92915050565b5f60208284031215610243576102426101f7565b5b5f6102508482850161021a565b91505092915050565b5f73ffffffffffffffffffffffffffffffffffffffff82169050919050565b5f61028282610259565b9050919050565b61029281610278565b82525050565b5f6020820190506102ab5f830184610289565b92915050565b6102ba81610278565b81146102c4575f80fd5b50565b5f813590506102d5816102b1565b92915050565b5f602082840312156102f0576102ef6101f7565b5b5f6102fd848285016102c7565b91505092915050565b61030f816101fb565b82525050565b5f6020820190506103285f830184610306565b92915050565b5f82825260208201905092915050565b7f4552433732313a206f776e657220717565727920666f72206e6f6e65786973745f8201527f656e7420746f6b656e0000000000000000000000000000000000000000000000602082015250565b5f61039860298361032e565b91506103a38261033e565b604082019050919050565b5f6020820190508181035f8301526103c58161038c565b9050919050565b7f4552433732313a2062616c616e636520717565727920666f7220746865207a655f8201527f726f206164647265737300000000000000000000000000000000000000000000602082015250565b5f610426602a8361032e565b9150610431826103cc565b604082019050919050565b5f6020820190508181035f8301526104538161041a565b905091905056fea264697066735822122028d6da8b45b6ff35a12ba263b6870c351cde7a8dcb7847798741238cd59b684564736f6c63430008150033",
  "immutableReferences": {},
  "source": "// SPDX-License-Identifier: MIT\r\npragma solidity >=0.4.22 <0.9.0;\r\n\r\n\r\n  /*\r\n\r\n  a. nft to point to an address\r\n  b. keep track of the token ids\r\n  c. keep track of the owner of the token ids\r\n  -> NFT     \r\n  d. keep track of how many tokens an owner address has\r\n  e. create an event that emits a transfer log \r\n  - contract address, where it is being minted to, the id\r\n\r\n  */\r\n\r\ncontract ERC721 {\r\n\r\n  event Transfer(address indexed from, address indexed to, uint256 indexed tokenId);\r\n\r\n  // mapping in solidity creates a hash table of key pair values\r\n\r\n  // Mapping from token id to the owner\r\n  //  ID    (      )\r\n  mapping(uint256 => address) private _tokenOwner;\r\n\r\n  // Mapping from owner to number of owned token\r\n  mapping(address => uint256) private _OwnedTokensCount;\r\n\r\n  /// @notice Count all NFTs assigned to an owner\r\n  /// @dev NFTs assigned to the zero address are considered invalid, and this\r\n  ///  function throws for queries about the zero address.\r\n  /// @param _owner An address for whom to query the balance\r\n  /// @return The number of NFTs owned by `_owner`, possibly zero\r\n  //        \r\n  function balanceOf(address _owner) public view returns(uint256) {\r\n    require(_owner != address(0), \"ERC721: balance query for the zero address\");\r\n    return _OwnedTokensCount[_owner];\r\n  }\r\n\r\n  /// @notice Find the owner of an NFT\r\n  /// @dev NFTs assigned to zero address are considered invalid, and queries\r\n  ///  about them do throw.\r\n  /// @param _tokenId The identifier for an NFT\r\n  /// @return The address of the owner of the NFT\r\n  //    \r\n  function ownerOf(uint256 _tokenId) external view returns (address) {\r\n    address owner = _tokenOwner[_tokenId];\r\n    require(owner != address(0), \"ERC721: owner query for nonexistent token\");\r\n    return owner;\r\n  }\r\n\r\n  function _exists(uint256 tokenId) internal view returns (bool) {\r\n    // setting the address of nft owner to check the mapping\r\n    // of the address from tokenOwner at the tokenId\r\n    address owner = _tokenOwner[tokenId];\r\n    // return truthiness the address is not the zero\r\n    return owner != address(0); \r\n  }\r\n\r\n  function _mint(address to, uint256 tokenId) internal virtual {\r\n    require(to != address(0), \"ERC721: minting to the zero address\"); //  0  \r\n    require(!_exists(tokenId), \"ERC721: token already minted\"); //    \r\n    _tokenOwner[tokenId] = to; //   to \r\n    _OwnedTokensCount[to] += 1; // to  \r\n\r\n    emit Transfer(address(0), to, tokenId);\r\n  }\r\n}\r\n\r\n// enumerable ->         ",
  "sourcePath": "C:\\git\\project\\nft-marketplace-starter-kit\\src\\contracts\\ERC721.sol",
  "compiler": {
    "name": "solc",
    "version": "0.8.21+commit.d9974bed.Emscripten.clang"
  },
  "schemaVersion": "3.4.14",
  "updatedAt": "2023-07-31T11:12:49.639Z",
  "devdoc": {
    "kind": "dev",
    "methods": {
      "balanceOf(address)": {
        "details": "NFTs assigned to the zero address are considered invalid, and this  function throws for queries about the zero address.",
        "params": {
          "_owner": "An address for whom to query the balance"
        },
        "returns": {
          "_0": "The number of NFTs owned by `_owner`, possibly zero"
        }
      },
      "ownerOf(uint256)": {
        "details": "NFTs assigned to zero address are considered invalid, and queries  about them do throw.",
        "params": {
          "_tokenId": "The identifier for an NFT"
        },
        "returns": {
          "_0": "The address of the owner of the NFT"
        }
      }
    },
    "version": 1
  },
  "userdoc": {
    "kind": "user",
    "methods": {
      "balanceOf(address)": {
        "notice": "Count all NFTs assigned to an owner"
      },
      "ownerOf(uint256)": {
        "notice": "Find the owner of an NFT"
      }
    },
    "version": 1
  }
}