{
  "contractName": "KryptoBirdz",
  "abi": [
    {
      "inputs": [],
      "payable": false,
      "stateMutability": "nonpayable",
      "type": "constructor"
    },
    {
      "constant": true,
      "inputs": [],
      "name": "name",
      "outputs": [
        {
          "internalType": "string",
          "name": "",
          "type": "string"
        }
      ],
      "payable": false,
      "stateMutability": "view",
      "type": "function"
    },
    {
      "constant": true,
      "inputs": [],
      "name": "symbol",
      "outputs": [
        {
          "internalType": "string",
          "name": "",
          "type": "string"
        }
      ],
      "payable": false,
      "stateMutability": "view",
      "type": "function"
    }
  ],
  "bytecode": "0x608060405234801561001057600080fd5b506040518060400160405280600b81526020017f4b727970746f426972647a0000000000000000000000000000000000000000008152506040518060400160405280600381526020017f4b425a0000000000000000000000000000000000000000000000000000000000815250818181600090805190602001906100959291906100b6565b5080600190805190602001906100ac9291906100b6565b505050505061015b565b828054600181600116156101000203166002900490600052602060002090601f016020900481019282601f106100f757805160ff1916838001178555610125565b82800160010185558215610125579182015b82811115610124578251825591602001919060010190610109565b5b5090506101329190610136565b5090565b61015891905b8082111561015457600081600090555060010161013c565b5090565b90565b6102ba8061016a6000396000f3fe608060405234801561001057600080fd5b50600436106100365760003560e01c806306fdde031461003b57806395d89b41146100be575b600080fd5b610043610141565b6040518080602001828103825283818151815260200191508051906020019080838360005b83811015610083578082015181840152602081019050610068565b50505050905090810190601f1680156100b05780820380516001836020036101000a031916815260200191505b509250505060405180910390f35b6100c66101e3565b6040518080602001828103825283818151815260200191508051906020019080838360005b838110156101065780820151818401526020810190506100eb565b50505050905090810190601f1680156101335780820380516001836020036101000a031916815260200191505b509250505060405180910390f35b606060008054600181600116156101000203166002900480601f0160208091040260200160405190810160405280929190818152602001828054600181600116156101000203166002900480156101d95780601f106101ae576101008083540402835291602001916101d9565b820191906000526020600020905b8154815290600101906020018083116101bc57829003601f168201915b5050505050905090565b606060018054600181600116156101000203166002900480601f01602080910402602001604051908101604052809291908181526020018280546001816001161561010002031660029004801561027b5780601f106102505761010080835404028352916020019161027b565b820191906000526020600020905b81548152906001019060200180831161025e57829003601f168201915b505050505090509056fea265627a7a723158201ba1b724dc9e43429a6c0db4e61eb9592761140b48a8deea6ff41cfcb2abb84564736f6c63430005110032",
  "source": "// SPDX-License-Identifier: MIT\r\npragma solidity >=0.4.22 <0.9.0;\r\n\r\nimport './ERC721Connector.sol';\r\n\r\ncontract KryptoBirdz is ERC721Connector {\r\n\r\n  // initialize this contract to inherit\r\n  // name and symbol from ERC721Metadata so that\r\n  // the name is KryptoBirdz and the symbol is KBZ\r\n\r\n  constructor() ERC721Connector(\"KryptoBirdz\", \"KBZ\") public {\r\n  }\r\n\r\n  /* string public name;\r\n  string public symbol;\r\n\r\n  constructor() public {\r\n      name = \"KryptoBirdz\";\r\n      symbol = \"KBZ\";\r\n  }\r\n\r\n  struct Bird {\r\n    uint id;\r\n    string name;\r\n    uint dna;\r\n  }\r\n\r\n  Bird[] public birds;\r\n\r\n  function _createBird(string memory _name, uint _dna) private {\r\n    birds.push(Bird(birds.length, _name, _dna));\r\n  } */\r\n}",
  "sourcePath": "C:\\git\\project\\nft-marketplace-starter-kit\\src\\contracts\\KryptoBirdz.sol",
  "compiler": {
    "name": "solc",
    "version": "0.5.17+commit.d19bba13.Emscripten.clang"
  },
  "schemaVersion": "3.4.14",
  "updatedAt": "2023-07-31T02:34:09.570Z",
  "networkType": "ethereum",
  "devdoc": {
    "methods": {}
  },
  "userdoc": {
    "methods": {}
  }
}