{
  "contractName": "KryptoBirdz",
  "abi": [
    {
      "inputs": [],
      "stateMutability": "nonpayable",
      "type": "constructor"
    },
    {
      "anonymous": false,
      "inputs": [
        {
          "indexed": true,
          "internalType": "address",
          "name": "from",
          "type": "address"
        },
        {
          "indexed": true,
          "internalType": "address",
          "name": "to",
          "type": "address"
        },
        {
          "indexed": true,
          "internalType": "uint256",
          "name": "tokenId",
          "type": "uint256"
        }
      ],
      "name": "Transfer",
      "type": "event"
    },
    {
      "inputs": [
        {
          "internalType": "address",
          "name": "_owner",
          "type": "address"
        }
      ],
      "name": "balanceOf",
      "outputs": [
        {
          "internalType": "uint256",
          "name": "",
          "type": "uint256"
        }
      ],
      "stateMutability": "view",
      "type": "function"
    },
    {
      "inputs": [
        {
          "internalType": "uint256",
          "name": "",
          "type": "uint256"
        }
      ],
      "name": "kryptoBirdz",
      "outputs": [
        {
          "internalType": "string",
          "name": "",
          "type": "string"
        }
      ],
      "stateMutability": "view",
      "type": "function"
    },
    {
      "inputs": [],
      "name": "name",
      "outputs": [
        {
          "internalType": "string",
          "name": "",
          "type": "string"
        }
      ],
      "stateMutability": "view",
      "type": "function"
    },
    {
      "inputs": [
        {
          "internalType": "uint256",
          "name": "_tokenId",
          "type": "uint256"
        }
      ],
      "name": "ownerOf",
      "outputs": [
        {
          "internalType": "address",
          "name": "",
          "type": "address"
        }
      ],
      "stateMutability": "view",
      "type": "function"
    },
    {
      "inputs": [],
      "name": "symbol",
      "outputs": [
        {
          "internalType": "string",
          "name": "",
          "type": "string"
        }
      ],
      "stateMutability": "view",
      "type": "function"
    },
    {
      "inputs": [],
      "name": "totalSupply",
      "outputs": [
        {
          "internalType": "uint256",
          "name": "",
          "type": "uint256"
        }
      ],
      "stateMutability": "view",
      "type": "function"
    },
    {
      "inputs": [
        {
          "internalType": "string",
          "name": "_kryptoBird",
          "type": "string"
        }
      ],
      "name": "mint",
      "outputs": [],
      "stateMutability": "nonpayable",
      "type": "function"
    }
  ],
  "bytecode": "0x608060405234801562000010575f80fd5b506040518060400160405280600b81526020017f4b727970746f426972647a0000000000000000000000000000000000000000008152506040518060400160405280600381526020017f4b425a00000000000000000000000000000000000000000000000000000000008152508181815f90816200008f919062000310565b508060019081620000a1919062000310565b5050505050620003f4565b5f81519050919050565b7f4e487b71000000000000000000000000000000000000000000000000000000005f52604160045260245ffd5b7f4e487b71000000000000000000000000000000000000000000000000000000005f52602260045260245ffd5b5f60028204905060018216806200012857607f821691505b6020821081036200013e576200013d620000e3565b5b50919050565b5f819050815f5260205f209050919050565b5f6020601f8301049050919050565b5f82821b905092915050565b5f60088302620001a27fffffffffffffffffffffffffffffffffffffffffffffffffffffffffffffffff8262000165565b620001ae868362000165565b95508019841693508086168417925050509392505050565b5f819050919050565b5f819050919050565b5f620001f8620001f2620001ec84620001c6565b620001cf565b620001c6565b9050919050565b5f819050919050565b6200021383620001d8565b6200022b6200022282620001ff565b84845462000171565b825550505050565b5f90565b6200024162000233565b6200024e81848462000208565b505050565b5b818110156200027557620002695f8262000237565b60018101905062000254565b5050565b601f821115620002c4576200028e8162000144565b620002998462000156565b81016020851015620002a9578190505b620002c1620002b88562000156565b83018262000253565b50505b505050565b5f82821c905092915050565b5f620002e65f1984600802620002c9565b1980831691505092915050565b5f620003008383620002d5565b9150826002028217905092915050565b6200031b82620000ac565b67ffffffffffffffff811115620003375762000336620000b6565b5b62000343825462000110565b6200035082828562000279565b5f60209050601f83116001811462000386575f841562000371578287015190505b6200037d8582620002f3565b865550620003ec565b601f198416620003968662000144565b5f5b82811015620003bf5784890151825560018201915060208501945060208101905062000398565b86831015620003df5784890151620003db601f891682620002d5565b8355505b6001600288020188555050505b505050505050565b6111f580620004025f395ff3fe608060405234801561000f575f80fd5b506004361061007b575f3560e01c806370a082311161005957806370a08231146100eb57806393ab6e561461011b57806395d89b411461014b578063d85d3d27146101695761007b565b806306fdde031461007f57806318160ddd1461009d5780636352211e146100bb575b5f80fd5b610087610185565b604051610094919061089c565b60405180910390f35b6100a5610214565b6040516100b291906108d4565b60405180910390f35b6100d560048036038101906100d09190610928565b610220565b6040516100e29190610992565b60405180910390f35b610105600480360381019061010091906109d5565b6102cc565b60405161011291906108d4565b60405180910390f35b61013560048036038101906101309190610928565b610380565b604051610142919061089c565b60405180910390f35b610153610426565b604051610160919061089c565b60405180910390f35b610183600480360381019061017e9190610b2c565b6104b6565b005b60605f805461019390610ba0565b80601f01602080910402602001604051908101604052809291908181526020018280546101bf90610ba0565b801561020a5780601f106101e15761010080835404028352916020019161020a565b820191905f5260205f20905b8154815290600101906020018083116101ed57829003601f168201915b5050505050905090565b5f600480549050905090565b5f8060025f8481526020019081526020015f205f9054906101000a900473ffffffffffffffffffffffffffffffffffffffff1690505f73ffffffffffffffffffffffffffffffffffffffff168173ffffffffffffffffffffffffffffffffffffffff16036102c3576040517f08c379a00000000000000000000000000000000000000000000000000000000081526004016102ba90610c40565b60405180910390fd5b80915050919050565b5f8073ffffffffffffffffffffffffffffffffffffffff168273ffffffffffffffffffffffffffffffffffffffff160361033b576040517f08c379a000000000000000000000000000000000000000000000000000000000815260040161033290610cce565b60405180910390fd5b60035f8373ffffffffffffffffffffffffffffffffffffffff1673ffffffffffffffffffffffffffffffffffffffff1681526020019081526020015f20549050919050565b6008818154811061038f575f80fd5b905f5260205f20015f9150905080546103a790610ba0565b80601f01602080910402602001604051908101604052809291908181526020018280546103d390610ba0565b801561041e5780601f106103f55761010080835404028352916020019161041e565b820191905f5260205f20905b81548152906001019060200180831161040157829003601f168201915b505050505081565b60606001805461043590610ba0565b80601f016020809104026020016040519081016040528092919081815260200182805461046190610ba0565b80156104ac5780601f10610483576101008083540402835291602001916104ac565b820191905f5260205f20905b81548152906001019060200180831161048f57829003601f168201915b5050505050905090565b6009816040516104c69190610d26565b90815260200160405180910390205f9054906101000a900460ff1615610521576040517f08c379a000000000000000000000000000000000000000000000000000000000815260040161051890610dac565b60405180910390fd5b600881908060018154018082558091505060019003905f5260205f20015f9091909190915090816105529190610f67565b505f60016008805490506105669190611063565b905061057233826105ac565b60016009836040516105849190610d26565b90815260200160405180910390205f6101000a81548160ff0219169083151502179055505050565b6105b682826105c3565b6105bf8161077c565b5050565b5f73ffffffffffffffffffffffffffffffffffffffff168273ffffffffffffffffffffffffffffffffffffffff1603610631576040517f08c379a000000000000000000000000000000000000000000000000000000000815260040161062890611106565b60405180910390fd5b61063a816107a5565b1561067a576040517f08c379a00000000000000000000000000000000000000000000000000000000081526004016106719061116e565b60405180910390fd5b8160025f8381526020019081526020015f205f6101000a81548173ffffffffffffffffffffffffffffffffffffffff021916908373ffffffffffffffffffffffffffffffffffffffff160217905550600160035f8473ffffffffffffffffffffffffffffffffffffffff1673ffffffffffffffffffffffffffffffffffffffff1681526020019081526020015f205f828254610716919061118c565b92505081905550808273ffffffffffffffffffffffffffffffffffffffff165f73ffffffffffffffffffffffffffffffffffffffff167fddf252ad1be2c89b69c2b068fc378daa952ba7f163c4a11628f55a4df523b3ef60405160405180910390a45050565b600481908060018154018082558091505060019003905f5260205f20015f909190919091505550565b5f8060025f8481526020019081526020015f205f9054906101000a900473ffffffffffffffffffffffffffffffffffffffff1690505f73ffffffffffffffffffffffffffffffffffffffff168173ffffffffffffffffffffffffffffffffffffffff161415915050919050565b5f81519050919050565b5f82825260208201905092915050565b5f5b8381101561084957808201518184015260208101905061082e565b5f8484015250505050565b5f601f19601f8301169050919050565b5f61086e82610812565b610878818561081c565b935061088881856020860161082c565b61089181610854565b840191505092915050565b5f6020820190508181035f8301526108b48184610864565b905092915050565b5f819050919050565b6108ce816108bc565b82525050565b5f6020820190506108e75f8301846108c5565b92915050565b5f604051905090565b5f80fd5b5f80fd5b610907816108bc565b8114610911575f80fd5b50565b5f81359050610922816108fe565b92915050565b5f6020828403121561093d5761093c6108f6565b5b5f61094a84828501610914565b91505092915050565b5f73ffffffffffffffffffffffffffffffffffffffff82169050919050565b5f61097c82610953565b9050919050565b61098c81610972565b82525050565b5f6020820190506109a55f830184610983565b92915050565b6109b481610972565b81146109be575f80fd5b50565b5f813590506109cf816109ab565b92915050565b5f602082840312156109ea576109e96108f6565b5b5f6109f7848285016109c1565b91505092915050565b5f80fd5b5f80fd5b7f4e487b71000000000000000000000000000000000000000000000000000000005f52604160045260245ffd5b610a3e82610854565b810181811067ffffffffffffffff82111715610a5d57610a5c610a08565b5b80604052505050565b5f610a6f6108ed565b9050610a7b8282610a35565b919050565b5f67ffffffffffffffff821115610a9a57610a99610a08565b5b610aa382610854565b9050602081019050919050565b828183375f83830152505050565b5f610ad0610acb84610a80565b610a66565b905082815260208101848484011115610aec57610aeb610a04565b5b610af7848285610ab0565b509392505050565b5f82601f830112610b1357610b12610a00565b5b8135610b23848260208601610abe565b91505092915050565b5f60208284031215610b4157610b406108f6565b5b5f82013567ffffffffffffffff811115610b5e57610b5d6108fa565b5b610b6a84828501610aff565b91505092915050565b7f4e487b71000000000000000000000000000000000000000000000000000000005f52602260045260245ffd5b5f6002820490506001821680610bb757607f821691505b602082108103610bca57610bc9610b73565b5b50919050565b7f4552433732313a206f776e657220717565727920666f72206e6f6e65786973745f8201527f656e7420746f6b656e0000000000000000000000000000000000000000000000602082015250565b5f610c2a60298361081c565b9150610c3582610bd0565b604082019050919050565b5f6020820190508181035f830152610c5781610c1e565b9050919050565b7f4552433732313a2062616c616e636520717565727920666f7220746865207a655f8201527f726f206164647265737300000000000000000000000000000000000000000000602082015250565b5f610cb8602a8361081c565b9150610cc382610c5e565b604082019050919050565b5f6020820190508181035f830152610ce581610cac565b9050919050565b5f81905092915050565b5f610d0082610812565b610d0a8185610cec565b9350610d1a81856020860161082c565b80840191505092915050565b5f610d318284610cf6565b915081905092915050565b7f4572726f72202d206b727970746f4269726420616c72656164792065786973745f8201527f7300000000000000000000000000000000000000000000000000000000000000602082015250565b5f610d9660218361081c565b9150610da182610d3c565b604082019050919050565b5f6020820190508181035f830152610dc381610d8a565b9050919050565b5f819050815f5260205f209050919050565b5f6020601f8301049050919050565b5f82821b905092915050565b5f60088302610e267fffffffffffffffffffffffffffffffffffffffffffffffffffffffffffffffff82610deb565b610e308683610deb565b95508019841693508086168417925050509392505050565b5f819050919050565b5f610e6b610e66610e61846108bc565b610e48565b6108bc565b9050919050565b5f819050919050565b610e8483610e51565b610e98610e9082610e72565b848454610df7565b825550505050565b5f90565b610eac610ea0565b610eb7818484610e7b565b505050565b5b81811015610eda57610ecf5f82610ea4565b600181019050610ebd565b5050565b601f821115610f1f57610ef081610dca565b610ef984610ddc565b81016020851015610f08578190505b610f1c610f1485610ddc565b830182610ebc565b50505b505050565b5f82821c905092915050565b5f610f3f5f1984600802610f24565b1980831691505092915050565b5f610f578383610f30565b9150826002028217905092915050565b610f7082610812565b67ffffffffffffffff811115610f8957610f88610a08565b5b610f938254610ba0565b610f9e828285610ede565b5f60209050601f831160018114610fcf575f8415610fbd578287015190505b610fc78582610f4c565b86555061102e565b601f198416610fdd86610dca565b5f5b8281101561100457848901518255600182019150602085019450602081019050610fdf565b86831015611021578489015161101d601f891682610f30565b8355505b6001600288020188555050505b505050505050565b7f4e487b71000000000000000000000000000000000000000000000000000000005f52601160045260245ffd5b5f61106d826108bc565b9150611078836108bc565b92508282039050818111156110905761108f611036565b5b92915050565b7f4552433732313a206d696e74696e6720746f20746865207a65726f20616464725f8201527f6573730000000000000000000000000000000000000000000000000000000000602082015250565b5f6110f060238361081c565b91506110fb82611096565b604082019050919050565b5f6020820190508181035f83015261111d816110e4565b9050919050565b7f4552433732313a20746f6b656e20616c7265616479206d696e746564000000005f82015250565b5f611158601c8361081c565b915061116382611124565b602082019050919050565b5f6020820190508181035f8301526111858161114c565b9050919050565b5f611196826108bc565b91506111a1836108bc565b92508282019050808211156111b9576111b8611036565b5b9291505056fea2646970667358221220a9c35fe3063ea47ec64a9b9cfb42292d23170049f0a23983ffb36685d39db5a764736f6c63430008150033",
  "immutableReferences": {},
  "source": "// SPDX-License-Identifier: MIT\r\npragma solidity >=0.4.22 <0.9.0;\r\n\r\nimport './ERC721Connector.sol';\r\n\r\ncontract KryptoBirdz is ERC721Connector {\r\n\r\n  //  ->    \r\n  string[] public kryptoBirdz;\r\n\r\n  mapping(string => bool) _kryptoBirdzExists;\r\n\r\n  // ERC721 -> tokenId \r\n  // KryptoBirdz ->  \r\n  function mint(string memory _kryptoBird) public {\r\n\r\n    require(!_kryptoBirdzExists[_kryptoBird], 'Error - kryptoBird already exists');\r\n    // this is deprecated - uint _id = kryptoBirdz.push(_kryptoBird);\r\n    kryptoBirdz.push(_kryptoBird);\r\n    uint _id = kryptoBirdz.length - 1;\r\n\r\n    // .push no longer returns the length but a ref to the added element\r\n    _mint(msg.sender, _id);\r\n\r\n    _kryptoBirdzExists[_kryptoBird] = true;\r\n  }\r\n\r\n  // initialize this contract to inherit\r\n  // name and symbol from ERC721Metadata so that\r\n  // the name is KryptoBirdz and the symbol is KBZ\r\n\r\n  constructor() ERC721Connector(\"KryptoBirdz\", \"KBZ\") public {\r\n  }\r\n\r\n}",
  "sourcePath": "C:\\git\\project\\nft-marketplace-starter-kit\\src\\contracts\\KryptoBirdz.sol",
  "compiler": {
    "name": "solc",
    "version": "0.8.21+commit.d9974bed.Emscripten.clang"
  },
  "schemaVersion": "3.4.14",
  "updatedAt": "2023-07-31T11:12:49.681Z",
  "devdoc": {
    "kind": "dev",
    "methods": {
      "balanceOf(address)": {
        "details": "NFTs assigned to the zero address are considered invalid, and this  function throws for queries about the zero address.",
        "params": {
          "_owner": "An address for whom to query the balance"
        },
        "returns": {
          "_0": "The number of NFTs owned by `_owner`, possibly zero"
        }
      },
      "ownerOf(uint256)": {
        "details": "NFTs assigned to zero address are considered invalid, and queries  about them do throw.",
        "params": {
          "_tokenId": "The identifier for an NFT"
        },
        "returns": {
          "_0": "The address of the owner of the NFT"
        }
      }
    },
    "version": 1
  },
  "userdoc": {
    "kind": "user",
    "methods": {
      "balanceOf(address)": {
        "notice": "Count all NFTs assigned to an owner"
      },
      "ownerOf(uint256)": {
        "notice": "Find the owner of an NFT"
      }
    },
    "version": 1
  }
}